:020000040800F2
:10000000F005002001010008EB18000805170008A2
:10001000E918000835040008591A0008000000001B
:10002000000000000000000000000000EF180008C1
:100030006F04000800000000ED180008F118000827
:100040001B0100081B0100081B0100081B01000820
:100050001B0100081B0100081B0100081B01000810
:100060001B0100081B0100081B01000839040008DF
:100070001B0100081B0100081B0100081B010008F0
:100080001B0100081B010008F90200081B01000801
:100090001B0100081B0100081B0100081B010008D0
:1000A0001B0100081B0100081B0100081B010008C0
:1000B0001B0100081B0100081B0100081B010008B0
:1000C0001B0100081B0100081B0100081B010008A0
:1000D0001B0100081B0100081B0100081B01000890
:1000E0001B0100081B0100081B010008DFF80CD0F1
:1000F00000F0F0F800480047991A0008F0050020C9
:100100000648804706480047FEE7FEE7FEE7FEE7B1
:10011000FEE7FEE7FEE7FEE7FEE7FEE75919000807
:10012000ED000008D2B201E000F8012B491EFBD21D
:1001300070470022F6E710B513460A4604461946F2
:10014000FFF7F0FF204610BDF0B480EA0102D40FA3
:100150004200B2EB410F02D20246084611464A0065
:1001600042D0C30DDDB2C1F3C752AD1A202D35DA2E
:10017000C1F3160141F4000204B15242C5F1200658
:1001800002FA06F12A411044B3EBD05F23D0C4B188
:10019000012DA0EBC35009DCF0BC4FF0004202EA95
:1001A000C352DBB200F5000000F066B8400000F179
:1001B000807000EBC350A0F1807040EAD17049001C
:1001C00009E0490841EAC071A0EBC35000F5000006
:1001D000400800EBC350F0BC00F045B8614201227A
:1001E00002EB4101001BF6E7F0BC704781F00041D3
:1001F000AAE780F00040A7E780EA010210B502F00C
:100200000043400022D04A001FD0010E01EB1261D2
:10021000C0F35600C2F3560240F4000042F400025C
:10022000A0FB022000047F39140400D0401C50EAD7
:10023000124001D44000491EC2B20C0604EBD0109B
:10024000401C4008802A02D003E0002010BD20F0AE
:100250000100002900DA0020184310BD9623002277
:10026000114600F009B80029A8BF7047401C49009A
:1002700008BF20F00100704710B4B0FA80FC00FA0B
:100280000CF050EA010404BF10BC704749B1CCF136
:10029000200421FA04F411FA0CF118BF01212143C2
:1002A0000843A3EB0C01CB1D4FEA00614FEA10207D
:1002B00042BF002010BC704700EBC350104400291F
:1002C000A4BF10BC7047401C490008BF20F00100CB
:1002D00010BC7047064C074D06E0E06840F0010393
:1002E00094E8070098471034AC42F6D3FFF702FFBA
:1002F000341B0008541B0008014800F0A2B900009C
:100300003801002070B5044600688168C943C907F8
:100310001CD1816821F00101816000F081FD05465A
:100320000FE000BF00F07CFD401B022809D9A06A45
:1003300040F01000A062E06A40F00100E06201209D
:1003400070BD20688068C043C007EBD0002070BD3E
:1003500010B50146406A826A12F0500F05D0006A5B
:10036000026BBDE8104008461047816A41F40071F5
:10037000816201688968C1F3424107290CD1017B80
:1003800051B9816A21F480718162816AC90403D400
:10039000816A41F00101816200F050F910BD10B591
:1003A000406A816A41F040018162C16A41F0040102
:1003B000C16200F045F910BD10B5406A00F03FF988
:1003C00010BD0000F8B5002604460096006881685C
:1003D000C943C90728D0816841F0010181601348F1
:1003E00013490068B0FBF1F000E0401E00900028C7
:1003F000FBD100F015FD054611E000BF00F010FD37
:10040000401B02280BD9A06A40F01000A062E06AED
:1004100040F00100E06284F824600120F8BD20680B
:100420008068C043C007E9D10020F8BD3400002037
:1004300040420F00FEE70000014800F0D9BA00007A
:100440006801002030B590F840500124AC40C56BE5
:100450006C60046863604368102B036803D0996084
:100460000068C26030BD9A600068C16030BD7047EE
:1004700070470000F8B500250446009590F8240068
:10048000012808D0012084F824002046FFF73AFF15
:10049000060002D04BE00220F8BDA06A20F488508C
:1004A00040F00200A062022000F058FD22490968D5
:1004B000B1FBF0F0400000E0401E00900028FBD1AE
:1004C0002046FFF77FFF2068816841F008018160C6
:1004D00000F0A6FC074604E000F0A2FCC01B0A28BE
:1004E00011D8206880680007F6D42068816841F040
:1004F0000401816000F094FC07460EE000F090FCDF
:10050000C01B0A2809D9A06A20F0020040F01000A0
:10051000A06284F824500120F8BD2068806840075C
:10052000ECD4A06A20F0020040F00100A06284F840
:1005300024503046F8BD0000340000207047000011
:10054000F8B50024009490F824202546012A12D002
:10055000012280F824204A681F23072A0DD206684A
:10056000776B521E02EB820293409F430B689340CD
:100570001F43776319E00220F8BD06680D2A0AD2EE
:10058000376BD21F02EB820293409F430B6893406C
:100590001F43376309E0F76A0D3A02EB820293408A
:1005A0009F430B6893401F43F7620A68072306685E
:1005B0000A2A0AD3F7680A3A02EB420293409F43A1
:1005C0008B6893401F43F76008E0376902EB4202F3
:1005D00093409F438B6893401F4337610A68102AFA
:1005E00001D0112A20D1124B02689A4217D1936888
:1005F0001B0219D4936843F400039360096810291F
:1006000012D10C490C4A0968B1FBF2F101EB8101EE
:10061000490000E0491E00910029FBD104E0816AF5
:1006200041F020018162012480F824502046F8BD69
:10063000002401403400002040420F007047704702
:10064000704710B5044600684168890626D50168E0
:10065000890723D5A16AC90603D4A16A41F40071B0
:10066000A1628168C1F34241072910D1217B71B990
:10067000416821F020014160A06A20F48070A062EE
:10068000A06AC00403D4A06A40F00100A062204622
:10069000FFF7D4FF21686FF01200086020684168FE
:1006A00009062ED5016849072BD5A16AC90603D4CE
:1006B000A16A41F40051A1628168C1F302310729A6
:1006C00009D04168490515D48168C1F34241072921
:1006D00010D1217B71B9416821F080014160A06A8D
:1006E00020F48050A062A06AC00503D4A06A40F044
:1006F0000100A0622046FFF721FF21686FF00C0087
:1007000008602068416849060DD50068C0070AD016
:10071000A06A40F48030A062204600F093F821687F
:100720006FF00100086010BD2DE9F0414FF00007A7
:1007300004003D467ED0A06A002628B9E66284F80F
:100740002460204600F080F82046FFF7DBFDA16A18
:10075000C90600D420B1A06A40F01000A06269E090
:10076000A16A21F4885141F00201A1626268E16945
:10077000237B0A4347EA43010A43A1684FF4807789
:10078000B94209D0012907D05FF0000194F814C0E4
:10079000BCF1010F02D00AE03946F7E7F3B1A36AD2
:1007A00043F02003A362E36A43F00103E36223689A
:1007B000D3F804C02CF4694C4CEA010CC3F804C013
:1007C00021688B68DFF870C003EA0C0313438B6069
:1007D000A168B9420BD0012909D00CE0DFF85CC058
:1007E000A3690CEB43330B4343F40061DFE7218A39
:1007F0000D05A5F580152168CB6A23F470032B4302
:10080000CB62216889680E4B1940914208D1E6629B
:10081000A16A21F0020141F00101A162BDE8F0816D
:10082000A06A20F0020040F01000A062E06A40F0F0
:100830000100E0620120F1E7FDF7E1FF00E0FFFFCA
:10084000FE0E1FFF7047000070B586B000250646FB
:10085000009501950295039500681D49884235D1A0
:100860001C49886940F400708861886900F4007050
:100870000490886940F0040088618869694600F046
:1008800004000490032000900190134800F0D2F976
:10089000134C1248C4E900058020C4E9025040000E
:1008A0002061800060612020C4E90605204600F038
:1008B00049F908B1FFF7DCFD34620022114612202D
:1008C000666200F019FB122000F008FB06B070BD54
:1008D00000240140001002400008014008000240CE
:1008E000680100202DE9F047894604463B4900682D
:1008F0003B4F0E1D9046884201D0B84207D1306868
:1009000010F4702F03D001252846BDE8F08794F835
:10091000240001280CD0012084F824002046FFF791
:1009200051FD05004FF0000004D084F82400EBE7EF
:100930000220EAE7A16A40F60162914341F4807126
:10094000A1622168B94218D1326812F4702F14D014
:10095000A16A41F48011A1623168490505D5A16AF7
:1009600021F4005141F48051A162A16AC9040AD561
:10097000E16A21F00601E16206E0A26A22F4801237
:10098000A2624968E9E7E06284F82400216A154818
:100990008862216A1448C862216A14480863216881
:1009A0006FF0020008602068816841F48071816006
:1009B000216843464A464C31206A00F0F1F820682D
:1009C0008168C1F342410729816803D041F4801155
:1009D000816099E741F4A001FAE70000002401409A
:1009E0000028014051030008B90300089F030008D4
:1009F0002DE9F05FC16B0C6801680B68D0F840C04E
:100A0000042202FA0CF2494DDFF824A1494E4A4F64
:100A1000DFF828B1DFF828E122422CD05A072AD586
:100A20000A68920603D40A6822F004020A60016888
:100A3000A94201D1042219E0514501D1402215E01B
:100A4000B14202D14FF4806210E0B94202D14FF4BA
:100A500080420BE0594502D14FF4802206E07145F7
:100A600002D14FF4800201E04FF080622F49083933
:100A70004A60C16A3BE04FF0020808FA0CF818EA35
:100A8000040F4FF000094FF0010235D05FEA837880
:100A900032D50B689B0605D40B6823F00A030B6064
:100AA00080F821200168A94201D1022219E05145B4
:100AB00001D1202215E0B14202D14FF4007210E0C2
:100AC000B94202D14FF400520BE0594502D14FF424
:100AD000003206E0714502D14FF4001201E04FF000
:100AE0000072124908394A6080F82090816A002912
:100AF0001AD0BDE8F05F0847082505FA0CF5254235
:100B000012D01B0710D50B6823F00E030B6090F872
:100B10004010C36B02FA01F15960826380F8212012
:100B200080F82090016BE2E7BDE8F09F08000240EA
:100B30001C000240300002404400024058000240C5
:100B40006C00024030B528B308C813491422194478
:100B5000B1FBF2F18900C163104981630221417741
:100B60001A6843F6F0718A43D0E900142143D0E9B2
:100B700002452C432143046921434469214384698C
:100B8000214311431960002141630122427701771B
:100B9000084630BD012030BDF8FFFDBF0000024017
:100BA00070B5044690F82000002501280CD00120E3
:100BB00084F8200094F821600020012E06D084F8EB
:100BC00020000225284670BD022070BD022684F850
:100BD0002160A0632068066826F0010606602046B2
:100BE000FFF730FCE06A00282068016802D041F07D
:100BF0000E0106E021F0040101602068016841F067
:100C00000A0101602068016841F001010160D9E733
:100C100070B5044600F004F90546601C02D0044893
:100C20000078044400F0FCF8401BA042FAD370BDE9
:100C3000280000202DE9F84FDFF8B891002409F1D1
:100C4000040A0AF1040B23460F270BF1040EC9E036
:100C50000125A5402A40AA427DD1674ED1F804C0A3
:100C6000ACEB0608B44532D014DCBCF1030F3AD02B
:100C700009DCBCF1000F2AD0BCF1010F1CD0BCF183
:100C8000020F31D11DE0BCF1110F17D0BCF1120FD2
:100C90002AD119E0B8F5881F19D006DCB8F5803FD5
:100CA00015D0B8F5801F1FD111E0B8F5001F0ED088
:100CB000B8F5041F18D10AE0CB6815E0CB681B1DFE
:100CC00012E0CB6808330FE0CB680C330CE08B6884
:100CD0002BB1012B4FF0080303D0456104E004233E
:100CE00002E0056100E00023FF2A01D8064601E08A
:100CF00000F104064FEA840501D9A5F12005D6F8D4
:100D0000008007FA05FC28EA0C0803FA05F548EA12
:100D10000508C6F800804D68ED0062D5374DAE6914
:100D200046F00106AE61AD6924F0030605F0010549
:100D30000095334D06EB050CDCF80850A607360F7E
:100D400007FA06F825EA0805DFF8B880404503D120
:100D50004FF0000817E044E0DFF8AC80404502D1D6
:100D60004FF001080FE0DFF8A480404502D14FF0BA
:100D7000020808E0DFF89880404502D14FF00308F0
:100D800001E04FF0040808FA06F848EA0508CCF834
:100D900008804D68D9F80060ED034D4601D5164333
:100DA00000E096432E604D68DAF80060AD035546CA
:100DB00001D5164300E096432E604D68DBF80060D5
:100DC000ED025D4601D5164300E096432E604D6866
:100DD000DEF80060AD02754601D5164300E096438B
:100DE0002E60641C0D682A46E5407FF431AFBDE8F3
:100DF000F88F0000000401400000111000100240B4
:100E00000000014000080140000C014000100140BA
:100E1000001401400AB1016170470904FBE70000BA
:100E2000014880687047000028000020024881685F
:100E3000027811448160704728000020074810B5EF
:100E4000016841F010010160032000F075F80020F6
:100E500000F006F800F024F8002010BD0020024049
:100E600070B50D4D04464FF47A712878B1FBF0F05F
:100E70000A490968B1FBF0F000F0C6FB48B9102C34
:100E800007D200222146501E00F036F800206C6088
:100E900070BD012070BD000028000020340000203B
:100EA0000C4808B5816941F001018161816901F057
:100EB00001010091C16941F08051C161C06900F038
:100EC000805000900448416821F0E06141F00071D9
:100ED000416008BD0010024000000140002809DB0D
:100EE00000F01F02012191404009800000F1E02044
:100EF000C0F8001170470000F0B40E4B1B680C46A0
:100F0000C3F30223C3F10705042D00D90425191DDD
:100F1000072901D2002300E0DB1E012606FA05F1B5
:100F2000491E214099409E40761E16403143F0BC38
:100F300000F093BD0CED00E0064900F007020868E0
:100F40004FF6FF03184040EA0220034A10430860AE
:100F5000704700000CED00E00000FA0510B529A470
:100F600001461DCC86B08DE81D002AA02A4C0068E1
:100F700004900020012923D002293AD010291DD144
:100F800061682268D20119D5C1F38342C9031DF8F3
:100F9000020009D5616804AAC1F34041515C1F4AAF
:100FA000B2FBF1F1484301E01D4948436168490241
:100FB00004D440005FF00301B0FBF1F006B010BDB7
:100FC000226AC2F30121012903D1920701D5C80386
:100FD000F4E7022905D1626A920702D549F640403A
:100FE000ECE70329EAD121688903E7D54FF22440D1
:100FF000E4E700F033F96168C1F38131491C49002D
:10100000DAE7000002030405060708090A0B0C0DC5
:101010000E0F1010010200000010024000127A00B2
:1010200000093D002DE9F84305460078354CC0071E
:1010300054D0E0690026C00008D4E06940F0805038
:10104000E061E069012600F0805000902E480168C0
:10105000C90512D40168804641F480710160FFF730
:10106000DFFE074605E000BFFFF7DAFEC01B64287D
:1010700023D8D8F80000C005F6D5206A10F44070D7
:1010800021D0A98801F4407181421CD0206A1F49F7
:10109000012220F440700A6000220A602062C0072A
:1010A00011D0FFF7BDFE074641F2883808E000BFC7
:1010B000FFF7B6FEC11B414502D90320BDE8F88306
:1010C000206A8007F4D5206A696820F440700843DC
:1010D00020621EB1E06920F08050E061287880072E
:1010E00005D56068A96820F440400843606028780E
:1010F000C00605D56068E96820F480000843606098
:101100000020DBE700100240007000404004424233
:101110002DE9F0470F46050061D0434E306800F0DE
:101120000700B84209D2306820F007003843306029
:10113000306800F00700B84251D128683B4C810765
:1011400012D5400703D5606840F4E06060602878FD
:10115000000703D5606840F4605060606068A9686B
:1011600020F0F000084360602878C00728D0686845
:10117000012810D02168022810D0890700292EDA12
:10118000616821F0030101436160FFF749FE804679
:1011900041F288390DE021688903EFE78901EDE725
:1011A000FFF73EFEA0EB0801494502D90320BDE848
:1011B000F0876068696800F00C00B0EB810FEFD138
:1011C000306800F00700B8420BD9306820F0070003
:1011D00038433060306800F00700B84201D0012089
:1011E000E5E72878400705D56068E96820F4E06005
:1011F000084360602878000706D56068296920F4F4
:10120000605040EAC100606000F038F86168084A48
:10121000C1F30311515CC8400649086006480068E4
:10122000FFF71EFE0020C2E700200240001002402F
:101230001C1B0008340000202C0000200448054935
:1012400000684968044AC1F30221515CC8407047F4
:1012500034000020001002402C1B000804480549FF
:1012600000684968044AC1F3C221515CC840704714
:1012700034000020001002402C1B000812A185B091
:101280000FC98DE80F0014A0144A0068049051683B
:10129000134801F00C03042B10D0082B0ED1C1F31E
:1012A0008343C9031DF803000AD5516804AAC1F39A
:1012B0004041515C0A4A5043B0FBF1F005B0704721
:1012C00008494843FAE70000020304050607080935
:1012D0000A0B0C0D0E0F101001020000001002404E
:1012E00000127A0000093D002DE9F84F040070D08B
:1012F0002078C04DC00749D06868C0F3810001283C
:1013000007D06868C0F38100022809D16868C0036B
:1013100006D52868800339D560680028E7D035E015
:101320006068B0F5803F0BD010B1B0F5A02F11D0A0
:10133000286820F480302860286820F4802002E0AB
:10134000286840F480302860606890B1FFF768FD3D
:1013500006460AE0286840F480202860F0E700BFD5
:10136000FFF75EFD801B642873D828688003F7D5DB
:101370000CE0FFF755FD064605E000BFFFF750FD06
:10138000801B6428F0D828688003F7D420789A4E10
:1013900080074FF001094FF0000839D5686810F058
:1013A0000C0F07D06868C0F38100022809D1686873
:1013B000C00306D42868800714D52069012808D105
:1013C00010E02069B0B1C6F80090FFF729FD07468C
:1013D00005E00AE1FFF724FDC01B0228C4D82868F5
:1013E0008007F7D52868616920F0F80040EAC1005D
:1013F00028600DE0C6F80080FFF712FD074604E004
:10140000FFF70EFDC01B022823D828688007F7D4F9
:10141000207800072CD57948A169D9B1C0F800908F
:10142000FFF7FEFC074604E0FFF7FAFCC01B0228AA
:101430000FD8686A8007F7D571484FF4FA510068F1
:10144000B0FBF1F0009000BF0098411E0091FAD26D
:101450000EE080E0C0F80080FFF7E2FC074604E001
:10146000FFF7DEFCC01B022875D8686A8007F7D436
:101470002078400760D5E8690027C00008D4E869F3
:1014800040F08050E861E869012700F0805000904A
:101490005C480168C90513D40168834641F4807132
:1014A0000160FFF7BDFC824606E000BFFFF7B8FC15
:1014B000A0EB0A0064284ED8DBF80000C005F5D583
:1014C000E06801280AD008B1052813D0286A20F066
:1014D00001002862286A20F0040002E0286A40F037
:1014E00001002862E06841F2883B98B1FFF798FC60
:1014F00082460BE0286A40F004002862EEE700BF55
:10150000FFF78EFCA0EB0A0159455AD8286A8007DC
:10151000F6D50CE0FFF784FC824605E0FFF780FC7F
:10152000A0EB0A0159454CD8286A8007F6D41FB1B0
:10153000E86920F08050E861E06988B36968C1F328
:101540008101022944D00228C6F8608004D0FFF748
:1015500067FC044638E034E0FFF762FC074604E02D
:10156000FFF75EFCC01B02282BD828688001F7D447
:10157000206AB0F5803F05D16868A16820F400308A
:1015800008436860D4E908010843696821F47411CC
:1015900008436860C6F86090FFF742FC044606E026
:1015A00025E000BFFFF73CFC001B022809D8286893
:1015B0008001F7D51BE000BFFFF732FC001B0228BB
:1015C00002D90320BDE8F88F28688001F4D40EE02A
:1015D0000128F7D06868226A00F48031914204D172
:1015E000616A00F47010884201D00120EAE700200F
:1015F000E8E700000010024000004242800442423E
:10160000340000200070004010B5401EB0F1807F13
:1016100001D3012010BD4FF0E02460610F2160175D
:1016200000F01BFA0020A06107202061002010BDFF
:1016300070B5040004D094F83900002510B106E01C
:10164000012070BD84F83850204600F023F8242093
:1016500084F839002068C16821F40051C160204637
:1016600000F09EF92068016921F490410161206831
:10167000416921F02A0141612068C16841F40051AB
:10168000C160E563202084F8390084F83A00002026
:1016900070BD000030B585B0002400940194029420
:1016A000039400681449884223D11448C16941F465
:1016B0000031C161C16901F400310491816941F0D7
:1016C0000401816180690E4D00F004000490042043
:1016D0000090022001900320039069462846FFF7FE
:1016E000A9FA0820CDE90004694628460294FFF7CC
:1016F000A1FA05B030BD00000044004000100240D7
:1017000000080140FEE70000FEB500241C480094DC
:1017100001941A49029401608915816001250573BD
:101720000475032606614FF460214460C161FEF731
:10173000FBFF08B1FEF79CFE07200094CDE90150A5
:1017400069460F48FEF7FCFE08B1FEF791FE022045
:10175000CDE9005069460A48FEF7F2FE08B1FEF7EF
:1017600087FE1020CDE9000669460548FEF7E8FE31
:10177000002801D0FEF77CFEFEBD000000240140E1
:1017800038010020094808B5416941F00101416173
:101790004069002200F00100009011460B20FFF785
:1017A000ABFBBDE808400B20FFF798BB00100240E0
:1017B00070B586B0002418480094019402940394F4
:1017C000816941F010018161816901F0100104918A
:1017D000816941F020018161816901F0200104915A
:1017E000816941F00401816180690C4E00F00400C0
:1017F0004FF400550490002229463046FFF70AFBBB
:1018000001200095CDE9010402200390694630468D
:10181000FFF710FA06B070BD001002400010014042
:101820000C4810B50A4901604FF4E13141600021D4
:1018300081600C22C160C0E904128161C161FFF7BF
:10184000F7FE002803D0BDE81040FEF711BE10BD22
:1018500000440040AC010020F0B500B9012020494F
:10186000204A0B6808330B609B1AFF2B01DC0A68C7
:1018700000E00A601A4D90800C35294616680B6806
:10188000934200D10E60164F0024D1F800303F1D66
:10189000D3F800C0944500D11E60B3F804C084455D
:1018A00003D20868106000200A602D68BB4214D083
:1018B0001968D1F800C0944500D10E60B1F804C099
:1018C000844503D21868106000201A60B94204D021
:1018D000641CA4B20B68202CDAD3A888F0BD0000E9
:1018E0000000002038000020FEE770477047704776
:1018F000FFF79CBA30B593B028216846FEF719FC73
:1019000014210AA8FEF715FC00240F9410941194DA
:1019100001204FF4A02112948DE8130004900225B9
:101920000004CDE907504FF4E01009906846FFF736
:10193000DBFC0F20CDE90A056802CDE90C4002214D
:101940000AA80E94FFF7E4FBA80311900F950FA8C7
:10195000FFF768FB13B030BD0D48016841F001018D
:10196000016041680B4A1140416001680A4A114018
:101970000160016821F480210160416821F4FE01C9
:1019800041604FF41F0181600449C0030860704743
:10199000001002400000FFF8FFFFF6FE08ED00E037
:1019A0002DE9F041044600680169E26821F44051E4
:1019B000114301612169A0680843616908432168F6
:1019C000CA6841F20C639A430243CA6020684169C5
:1019D000A26921F44071114341611E4920686425C8
:1019E0003226884202D1FFF739FC01E0FFF726FCDE
:1019F00000EBC00101EB001160686FF01807800078
:101A0000B1FBF0F2B2FBF5F2B1FBF0F37A4303EB7A
:101A10008202B1FBF0F306EB0212B2FBF5F2B3FB6C
:101A2000F5F302F0F00202EB0312B1FBF0F3B1FBAD
:101A3000F0F0B0FBF5F0784303EB800006EB00100C
:101A4000B0FBF5F0216800F00F0010448860BDE89D
:101A5000F081000000380140FEE70907090E002868
:101A600004DB00F1E02080F80014704700F00F0064
:101A700000F1E02080F8141D704702E008C8121F32
:101A800008C1002AFAD170477047002001E001C167
:101A9000121F002AFBD17047FFF7D0F9FFF72AFF8A
:101AA000FFF786FEFFF76EFEFFF72EFEFFF7B8FE8C
:101AB0006420FFF7ADF81448FEF7DCFC0520FFF7C3
:101AC000A7F8032211491048FEF70CFF0F4D104EE6
:101AD000104FDFF84480A5F10C0428882188884243
:101AE000FBD020802088FFF7B7FEFEF7B7FB31461A
:101AF000FEF782FB39466060FEF77EFB4146FEF74B
:101B000075FBA060E9E700003801002020000020FC
:101B1000B81E553A0000C8423393884300000000C5
:101B2000000000000102030406070809000000008D
:101B300001020304541B00080000002038000000CC
:101B40007A1A00088C1B000838000020B805000035
:101B50008A1A000838000020000000000000000081
:101B60000400002000000000000000000000000051
:101B70000000000000000000000000000100000064
:0C1B800010000000000000000024F40031
:04000005080000ED02
:00000001FF
